:100000000C942A000C9434000C9434000C943400AA
:100010000C9434000C9434000C9434000C94340090
:100020000C9434000C9434000C9434000C94340080
:100030000C9434000C9434000C9434000C94340070
:100040000C9434000C9434000C9434000C94340060
:100050000C94340011241FBECFE5D8E0DEBFCDBF25
:100060000E94B8000C94D4000C940000982F977054
:10007000869586958695813021F130F08230F1F1B8
:10008000833009F458C00895613069F44BB321E01E
:1000900030E0B90102C0660F771F9A95E2F7CB01F5
:1000A000842B8BBB08954BB321E030E0B90102C033
:1000B000660F771F9A95E2F7CB01809584238BBB5F
:1000C0000895613069F448B321E030E0B90102C01D
:1000D000660F771F9A95E2F7CB01842B88BB0895B2
:1000E00048B321E030E0B90102C0660F771F9A954E
:1000F000E2F7CB018095842388BB0895613069F4D1
:1001000045B321E030E0B90102C0660F771F9A9530
:10011000E2F7CB01842B85BB089545B321E030E0A5
:10012000B90102C0660F771F9A95E2F7CB0180955F
:10013000842385BB0895613069F442B321E030E047
:10014000B90102C0660F771F9A95E2F7CB01842BA5
:1001500082BB089542B321E030E0B90102C0660FCE
:10016000771F9A95E2F7CB018095842382BB08958F
:10017000A29A61E082E10E9436002FEF83ED90E3C6
:10018000215080409040E1F700C0000060E082E133
:100190000E9436002FEF83ED90E321508040904085
:0C01A000E1F700C00000E5CFF894FFCFAD
:00000001FF
